:020000040800F2
:1000000000040020DB010008E9010008EB01000802
:10001000ED010008EF010008F101000800000000F8
:10002000000000000000000000000000F3010008D4
:10003000F501000800000000F7010008F9010008C0
:10004000FB010008FB010008FB010008FB010008A0
:10005000FB010008FB010008FB010008FB01000890
:10006000FB010008FB010008FB010008FB01000880
:10007000FB010008FB010008FB010008FB01000870
:10008000FB010008FB010008FB010008FB01000860
:10009000FB010008FB010008FB010008FB01000850
:1000A000FB010008FB010008FB010008FB01000840
:1000B000FB010008FB010008FB010008FB01000830
:1000C000FB010008FB010008FB010008FB01000820
:1000D000FB010008E3050008FB010008FB01000824
:1000E000FB010008FB010008FB010008FB01000800
:1000F000FB010008FB010008FB010008FB010008F0
:10010000FB010008FB010008FB010008FB010008DF
:10011000FB010008FB010008FB010008FB010008CF
:10012000FB010008FB010008FB010008FB010008BF
:1001300000F002F800F03AF80AA090E8000C8244BF
:100140008344AAF10107DA4501D100F02FF8AFF29C
:10015000090EBAE80F0013F0010F18BFFB1A43F0A5
:10016000010318477420000094200000103A24BFB7
:1001700078C878C1FAD8520724BF30C830C144BF0C
:1001800004680C607047000000230024002500264E
:10019000103A28BF78C1FBD8520728BF30C148BFEA
:1001A0000B6070471FB51FBD10B510BD00F030FCCF
:1001B0001146FFF7F7FF00F033F800F04EFC03B4F0
:1001C000FFF7F2FF03BC00F0FDF9000030BF72B68C
:1001D00062B680F30888704770470B4880470B4928
:1001E00081F308880A480047FEE7FEE7FEE7FEE7DE
:1001F000FEE7FEE7FEE7FEE7FEE7FEE70548064905
:10020000044A064B70470000D9010008280B002063
:100210003101000828030020280B002028030020BB
:10022000092000F074F9482000F006F84FF47A70C5
:1002300000F096FB00BFFEE74FF0E021096921F0D6
:1002400004014FF0E0221161C21700EB5272C2F3B9
:10025000C702234B1A701946097801EB4102C2EB21
:10026000C1114FF6FF7202EAC1011E4A11807047A8
:1002700001461B4A12784A434FF0E0235A6100229C
:100280009A6101221A6100BF4FF0E022106900F06C
:1002900001021AB100F48032002AF5D000224FF09A
:1002A000E0231A619A61704701460E4A12884A4358
:1002B0004FF0E0235A6100229A6101221A6100BFC7
:1002C0004FF0E022106900F001021AB100F4803210
:1002D000002AF5D000224FF0E0231A619A6170479E
:1002E0000000002002000020AA4A0A400243AA4B54
:1002F0001A6070470146072323EA01021202A64B47
:100300001B1D18684FF6FF031840A44B18431043F9
:10031000A14B1B1D186070472DE9F04780468946A8
:1003200014461D462046E11704EB9171C1F3870A7C
:10033000E11704EB91718910A4EB8101CFB2042085
:1003400000EBC700C7B22846FFF7D4FFC5F1040091
:1003500008FA00F60F20284100EA0900064306F0DB
:100360000F06202C09DA8E4801680120A0400143C5
:100370004FF0E020C0F800110BE08948001D006834
:10038000A4F1200101228A4010434FF0E021C1F87E
:100390000401844850F82A0006FA07F1084381490D
:1003A00041F82A00BDE8F08770B504460B46CE1729
:1003B00001EB9676C6F38700CE1701EB9676B61062
:1003C000A1EB8606B606350E774B9B6943F0010319
:1003D000754EB3614FEAB63353F820300F26AE4066
:1003E000B343724E46F82030334653F8203004FAB7
:1003F00005F61E436D4B43F820606D4B1B680126CC
:100400008E4033436A4E336002F0010343B1684BC0
:100410000C331B6801268E403343654E0C36336027
:1004200002F0020343B1624B08331E6801238B4084
:100430001E435F4B08331E6070BD00B500205A4953
:100440000861C8601420486100208861C8610846BE
:10045000006840F0010008600846406855490840BF
:100460005149486008460068534908404E490860B1
:100470000846006820F4802008600846406820F4A0
:10048000FE0048600020886000214FF00060FFF708
:100490002BFF00BD10B540480830006840F0040054
:1004A0003D49083108604048C06940F080503E49ED
:1004B000C8614248406840F480704049486008463E
:1004C000006840F0040008600846006840F0020040
:1004D0000860FFF77BFE10BD3048001D2E49091D46
:1004E00008607047014649062F4A926942F00102AE
:1004F0002D4B9A612D4A083A526822F0E0622B4B4C
:10050000083B5A601A4652680A435A60704730B531
:1005100004460025FFF791FF2348006840F480302F
:100520002149086000BF20480068400C0028FAD02C
:100530004FF480601C494860A01EC4B20846406861
:1005400040EA844048600846406840F48030486093
:100550001B48006840F032001949086012480068E2
:1005600040F080701049086000BF0F480068400EDE
:100570000028FAD00C48406840F002000A49486060
:1005800005E009484068C0F3870505F00305022D22
:10059000F7D130BD80FFFF1F08ED00E00000FA0535
:1005A00000E100E000E400E000100240080001402B
:1005B000000401400000FFF8FFFFF6FE007000405D
:1005C00000200240014600BF704700BF584A128811
:1005D00002F04002002AF9D0C2B2554B1B1D1A800E
:1005E00070475349098801F0200111B35049091D92
:1005F0000988C8B24F49098801F40041C9B94D4979
:10060000098801F4804161B10A2803D00021494AD8
:10061000118020E04749098841F40041454A118092
:1006200019E00D2806D14349098841F48041414A27
:10063000118010E03F490988C1F30D013E4A505432
:100640003C490988491C3B4A118011460988C72941
:1006500001DD0021118070472DE9F05F05460E464F
:10066000300101F04FFB8146344905FB01F001F0F8
:1006700049FB8246494601F063FA0746384601F0D5
:1006800021FB84B2204601F03DFB8346394601F050
:1006900019FC82464FF0834101F048FB814601F08E
:1006A00011FB80464FF6FF7000EA041404EB0800CB
:1006B00084B22348806940F00400214988610846DB
:1006C000806940F4804088611E48006820F47F60A3
:1006D0001C4908600846006840F40B600860184830
:1006E000C06840F480401649C8600846C06820F4DD
:1006F0008040C8600E4808300480001D008842F227
:100700000C0108430A490C3108800846008840F46F
:10071000807008800846008840F02000088002238E
:10072000252203210846FFF7F7FDBDE8F09F0000F2
:1007300000380140080000200C00002040420F005B
:1007400000100240040801402DE9F04792B08146B4
:100750008A46002445E0A9F1010000F070FF074639
:100760008846204600F082FF0022904BCDE9000130
:1007700000F090FF3A464346CDE9020100F0AAFDA1
:1007800000224FF08043CDE9040100F083FF884A46
:10079000884BCDE9060100F07DFF054600F09AFC8C
:1007A000854A864BCDE9080100F074FF824A834BED
:1007B000CDE90A0100F0DEFC0022814BCDE90C01FD
:1007C00000F068FF4FF066327E4BCDE90E0100F07D
:1007D00081FDCDE9100100F005FF2AF81400601C2E
:1007E00084B24C45B7DB12B0BDE8F087764880692B
:1007F00040F00400744988617448006820F4702057
:10080000724908600846006800F4403008606F488C
:100810000C30006840F010006C490C3108607047E3
:100820006948806940F00400674988610846C069EA
:1008300040F00050C8616548006820F470206349AA
:1008400008600846006808606148006840F00100E0
:100850005F4908600846006840F0020008600846EA
:10086000006840F0040008600846006840F020007E
:100870000860084600680860084600680860084686
:10088000006840F480500860002051490831086039
:1008900070474D49C96941F001014B4AD1610021BE
:1008A000920411851146098811804A49B1FBF0F183
:1008B000491E9185114689884FF68F7211404FF07D
:1008C000804291801146898841F0200191807047D3
:1008D00010B504463C48406940F002003A4948617E
:1008E0000520FFF7E1FC3A4808303B490860081D45
:1008F0000460FA20091F08600020091F08600846EC
:10090000006840F0100008600846006840F02000D1
:1009100008600846006808600846006840F08000EB
:1009200008600846006840F4807008600846006867
:1009300040F4806008600846006840F48050086019
:100940000846006840F400500860084600680860E7
:100950000846006840F00100086010BD81857047BE
:1009600010B504461D49FA20FFF7EEFEFFF73EFFE3
:100970002046FFF78EFFFFF753FF1848FFF7A8FF49
:100980004FF08040008840F001004FF08041088027
:1009900010BD00B502460F48B0FBF2F0401E83B216
:1009A00019464FF08040FFF7D9FF00BD0000F03F2F
:1009B0004AD8124DFB2109409A9999999999F93F82
:1009C00000FEAF4066660A40001002400008014089
:1009D000007400400065040038040240D400002088
:1009E0007047704770477047704710B500F008F8BF
:1009F000006810BD10B5044600F002F8046010BD98
:100A000000487047C802002000487047C802002014
:100A10007546FFF7F9FFAE4605006946534620F0DC
:100A20000700854618B020B5FFF7E8FBBDE8204079
:100A30004FF000064FF000074FF000084FF0000B9A
:100A400021F00701AC46ACE8C009ACE8C009ACE84D
:100A5000C009ACE8C0098D46704710B50446AFF335
:100A600000802046BDE81040FFF7A9BB490050EACE
:100A7000C12018BF04204A0D18BF40F0010040F209
:100A8000FF72B2EB515F08BF40F00200012808BFBF
:100A9000052070472DE9F74F144694B00021C4E9B2
:100AA00002111599079121F00045C9498D4206DCD4
:100AB0001599C4E9000117B00020BDE8F08FC549C1
:100AC000DFF814A3A9423CDD0799C44E0029C44FA6
:100AD000C44A1599534619DD00F0E6FE554506D087
:100AE000C14AC24B00F0E0FEC4E900010AE04FF049
:100AF000D352BE4B00F0D8FE32463B4600F0D4FE47
:100B0000C4E9000117B00120BDE8F08F00F032FB0E
:100B1000554506D0B44AB54B00F02CFBC4E90001A2
:100B20000AE04FF0D352B14B00F024FB32463B4673
:100B300000F020FBC4E9000117B04FF0FF30BDE822
:100B4000F08FAB49A942159978DB21F0004183462B
:100B50008846A84AA84B00F09DFD0022A74B00F054
:100B600009FB00F00FFD099000F069FD06460F46F5
:100B70009C4A534600F08EFD43465A4600F088FEDC
:100B800080468A46984A994B3046394600F082FDA5
:100B90002A0D01250B924246534600F079FE032DA3
:100BA000C4E9000139D00B98C1F30A51401A05EB92
:100BB00045111139814230DA9148C346784400EB3F
:100BC0000510CDF80CA00C90D0E900233046394632
:100BD00000F060FD02460B460491069058460399CA
:100BE00000F062FE80468A4602460B46584603994C
:100BF00000F05AFE049B069A00F056FE83460C98BD
:100C000003913946D0E90223304600F043FD5A46AD
:100C1000039B00F049FE6D1CBDE707980028A2BFAA
:100C2000099817B0BDE8F08F616881F000416160FC
:100C3000099817B04042BDE8F08FFFE78446159849
:100C4000C1F31301C0F30A50A0F2F5304FEA601867
:100C500000F01F06C6F120001390002006900790B8
:100C600041F4801E05206D4676B1664A08EB00010E
:100C70007A4452F8213002EB8101B3404A6813995B
:100C800022FA01F1194305E05F4908EB00027944BB
:100C900051F82210A1FB0E27A1FB0C131A449A4213
:100CA00034BF0123002303EB070A05EB8003D3E9DC
:100CB00001B70F448F4234BF0121002193448B447C
:100CC00011B1934502D903E0934501D2012100E01F
:100CD0000021C3E901B7514445F82010011EA0F1DD
:100CE0000100C1DC0298059F00F10050800F1290B6
:100CF0000298DDE90356800000F0A1FC83462846F7
:100D00000D9100F0B3FC6FF01D0201F08CF9CDE9FC
:100D10000E01304600F0AAFC6FF03D0201F083F9AD
:100D200080468A46384600F0A1FC6FF05D0201F073
:100D30007AF9074642465346119100F01BFADDE965
:100D40000E2300F017FA5A460D9B00F013FA002507
:100D50000E465A4628460D9B00F0A6FDDDE90E23FF
:100D600000F0A2FD4246534600F09EFD3A46119B1C
:100D700000F08EFDDFF898A0244A534600F08AFC6C
:100D800007468846234A244B3146284600F082FC19
:100D90003A46434600F0EEF9074688464FF0A8422F
:100DA00053463146284600F075FC3A46434600F06B
:100DB000E1F9159A12F0004F04D0129A81F0004127
:100DC00052421292C4E90001129817B0BDE8F08FA8
:100DD000FB21E93F7CD90240FB21F93F7370032ED0
:100DE0008A19A33B000040543163621A61B4D03DBC
:100DF000FB21394183C8C96D305FE43F0000E03F0B
:100E000028150000A414000086140000182D445476
:100E1000FB21F93D3326A611460B113C2DE9FF4D70
:100E200021F0004807460C46B8F1795F08DA00F077
:100E3000A9FB002801BF0020324904B0BDE8F08DB5
:100E40003A4623461046194600F024FC0546024661
:100E50002D480E460B460621784400F05DF82A46E0
:100E6000334600F017FCDDE9022382468B46384604
:100E7000214600F00FFC04460F4652465B462846CA
:100E8000314600F007FC22463B4600F00DFD0746C8
:100E90008A464FF0FF322846314601F0C4F81B4A1B
:100EA00090450ADA3A46534600F0FEFC04B00022B0
:100EB000BDE8F04D134B00F0EBBC154A4245A8BF0E
:100EC000A8F500154FF00004B8BF124D22462B467E
:100ED00000F0EAFC0646884622462B4600200949D7
:100EE00000F0E2FC04460D463A4653463046414681
:100EF00000F0DAFC04B022462B46BDE8F04D00F0CD
:100F0000C7BC00000000F03F5C1200003333D33F49
:100F10000000E93F0000D23F2DE9F0414F1E00EBF9
:100F2000C7010446D1E9000115461E4637F0060206
:100F30000DD02A46334600F0ADFB7F1E04EBC703FD
:100F4000D3E9002300F016F937F00602F1D1022FA1
:100F500025D0042F13D0062F18BFBDE8F0812A46F4
:100F6000334600F097FBD4E90A2300F003F92A4640
:100F7000334600F08FFBD4E9082300F0FBF82A4643
:100F8000334600F087FBD4E9062300F0F3F82A4645
:100F9000334600F07FFBD4E9042300F0EBF82A4647
:100FA000334600F077FBD4E9022300F0E3F82A4649
:100FB000334600F06FFBD4E90023BDE8F04100F0B8
:100FC000D9B800002DE9FF4D054621F0004084B05E
:100FD0000C46B0F1795F0BDA2846FFF747FD04288D
:100FE00008BF00F06FF8284608B02146BDE8F08D34
:100FF0002A460B46104600F04DFB06460F462A4691
:10100000234600F047FB804626488A4632463B4648
:1010100005217844FFF780FF83461098029160B362
:10102000214A224B4046514600F034FBCDE90001F5
:101030005A4640465146029B00F02CFB82468846A9
:10104000DDE906014FF0FF3200F0EDFF5246434666
:1010500000F02AFC32463B4600F01CFBDDE906238B
:1010600000F022FCDDE9002300F01EFC08B02A4657
:101070002346BDE8F04D00F00BBC0B465A46304607
:10108000394600F007FB084A084B00F073F8424667
:10109000534600F0FFFA08B02A462346BDE8F04D5B
:1010A00000F068B89A110000495555555555C5BF0F
:1010B000012200F0B8BF002213461046114600F08E
:1010C00009B90000024A0020110700F0ACBF00007F
:1010D00001FDFFFF00B5254B21F0004287B09A4289
:1010E00003DC0022134600922BE0214B9A4208D1E8
:1010F00040B94FF00100FFF77DFCFFF7DCFF07B0C0
:1011000000BD03DBFFF7D4FF07B000BD02AAFFF765
:10111000C1FC10F003014FF001000DD0012914D0E3
:1011200002291AD00DF1080C9CE80F00FFF776FE9B
:1011300007B081F0004100BD0DF1080C00909CE863
:101140000F00FFF73FFF07B000BD0DF1080C9CE852
:101150000F00FFF763FE07B000BD0DF1080C009013
:101160009CE80F00FFF72EFFE2E70000FB21E93FBC
:101170000000F07F10B591EA030F48BF83F00043F1
:1011800000F19A83841A71EB030C05D2121943EB18
:101190000C03001B61EB0C01DFF824E14FEA115452
:1011A000A4EB135C1EEA430F18BF9EEA445F73D0A2
:1011B00023EA0E03DCF1200E21EA045143F48013EC
:1011C00032D322FA0CFE10EB0E0023FA0CFE41EB98
:1011D0000E01CCF1200E03FA0EFE10EB0E0051F1C1
:1011E0000001B1F5801FCCF1200E32D201EB045189
:1011F00012FA0EF2BDE8104058BF7047401C38BFCD
:101200005FEA420218BF7047002814BF20F00100B7
:1012100041F100014FEA410313F5001F38BF704749
:10122000A1F1C04100F02EBB012A43EB0302ACF157
:10123000200CDCF11F0E32BF4FF0000E23FA0CF32E
:1012400010EB030041EB0451B4EB115FD0D0A1EBE4
:10125000045101F5801149085FEA300001EB0451A7
:101260000ED350F1000038BF12FA0EFE08D1BDE8CF
:101270001040C9E7401C38BF5FEA4202CAD1C3E749
:10128000BDE810404FEA410313F5001F38BF704717
:10129000A1F1C04100F0F6BA9EEA445F08D011EA1D
:1012A0005E0FBDE8104004BF01F000410020704710
:1012B000BDE8104070B500F097FA00BF64FBBE3E79
:1012C0000000E0FF02494FF0000000F07ABE00BFCE
:1012D0000000F87F2DE9C04130B4DFF8A0C23CEA3D
:1012E000111418BF3CEA131400F0EC8081EA0305E6
:1012F0001CEA111444EAD57418BF1CEA131500F057
:10130000C780A4EB05044FF0004545EAC12145EA3A
:10131000C32341EA505143EA525304F17F74994286
:1013200004F500344FEAC0204FEAC22208BF9042C1
:1013300000F09C804FEA13650FF24016765D4FEA8D
:10134000134506FB05F7C7F1807706FB07F74FEA61
:10135000D737A7FB03687642C8F58038A7FB06CECF
:1013600038BFA8F1010807FB08E64FF0000EA6FB06
:10137000028CE6FB03CEDCF1000CCEF1004E38BF50
:10138000AEF1010EA6FB0C584FF000074FF0000520
:10139000E6FB0E87A1FB08C6A0FB07CE16EB0E06E8
:1013A00045F10005E1FB076515F1E04E7EBFA4F5B0
:1013B00080345FEA46066D4116F1800745F100056D
:1013C0004FEA17274FEA066647EA0567A6F1DE46A9
:1013D000B6F1805F4FEA15251FD9384624F0010C7D
:1013E00005EBC471BCF1FE6F01EB0C1102D8F0BC2F
:1013F000BDE8008124425CBF01F5801E9EEAC47FE7
:1014000002D4F0BCBDE80081244238D4F0BCA1F184
:10141000C041BDE8004100F035BA4FEAD22242EAAD
:1014200043524FEAD323A7FB02864FEAD02040EA7B
:10143000415007FB03661EEA0E0F4FEAD12105FB60
:10144000026658BFA6EB0056B6EB00564FEA520EA6
:101450004EEAC37E18EB0E0E56EB530EBDD518EBBD
:1014600002085E417F1C55F10005B6E74FF4801578
:101470004FF000074FF000064FF00008ADE7F0BC5A
:101480004FF0000001F1C04101F00041BDE80081D2
:1014900011EA0C1F0CEA131500D00CE013EA0C1F24
:1014A00000F025804FF00000F0BC81EA030101F05C
:1014B0000041BDE80081F0BCBDE8004181EA0301C4
:1014C00000F0E0B9F0BCBDE8004170B500F08CF967
:1014D000097EFC3E00F007B881EA03014FF00000EE
:1014E00001F00041704781EA030100F0CBB9F0BC84
:1014F000BDE800414FF0000021497047FFFDFBF9B6
:10150000F7F5F4F2F0EEEDEBE9E8E6E4E3E1E0DE36
:10151000DDDBDAD8D7D5D4D3D1D0CFCDCCCBCAC8A8
:10152000C7C6C5C4C2C1C0BFBEBDBCBBBAB9B8B7CF
:10153000B6B5B4B3B2B1B0AFAEADACABAAA9A8A8C2
:10154000A7A6A5A4A3A3A2A1A09F9F9E9D9C9C9B90
:101550009A9999989797969595949393929191903B
:101560008F8F8E8E8D8C8C8B8B8A898988888787CC
:101570008685858484838382828181800000FF0741
:101580000000F87F4FEA41034FEA5353A3F580630D
:10159000D3F11E03C8BFD3F1210C0CDD4FF0004284
:1015A00042EAC12242EA505232FA03FC8CEAE17C60
:1015B000ACEBE1707047102BC4BF0020704703F5FF
:1015C000787CBCF1FF3F04D06FF0004282EA21003A
:1015D000704770B500F008F94992248000207047E8
:1015E000F2E700004FEA1153A3F58063D3F11E0325
:1015F000A8BFD3F1200C08DB4FF0004242EAC12221
:1016000052EA505232FA03F0704709420BD4102BC1
:10161000C4BF0020704703F5787CBCF1FF3F05D0C4
:101620004FF0FF3070474FF00000704770B500F08A
:10163000DBF800BF4992248000207047F0E710F0EB
:10164000004248BF4042B0FA80F310FA03F10AD0DA
:10165000C3F11D0303F580634FEA415002EB0352CF
:1016600002EBD12170474FF000007047B0FA80F3D1
:1016700010FA03F10AD0C3F11D0303F580634FEAAA
:1016800041504FEA035202EBD12170474FF0000066
:1016900070470000DFF848C170B51CEA111E1EBF7C
:1016A0001CEA13159EEA0C0F95EA0C0F00F06F80F0
:1016B00081EA030423EA4C134EEAD47E21EA4C115A
:1016C00041F4801143F48013AE44A1FB024CA0FB13
:1016D0000365AEF17F7E361955EB0C05A1FB034C7B
:1016E0004CF10003A0FB021C16EB0C06654153F104
:1016F0000003094218BF46F0010613F4007F0BD126
:101700004FEA03314FEA0530340341EA155140EA0C
:1017100016506FF003020AE04FEAC3214FEAC520DA
:10172000F40241EA555140EA56506FF0020202EBD2
:101730002E4201EB025585EACE710AD05FEA440CD5
:1017400018BF24F0004450F1000041F1000120EAEC
:10175000D47040F2FE7C624500D270BDA84214BF36
:101760004FF080444FF04044002E08BF0024BEF1EB
:10177000806FA8BFA1F1C041BDE8704080F28280B7
:101780004FF0000001F1C04101F0004170479EEAB6
:101790000C0F0CEA131518BF95EA0C0F06D04FF08A
:1017A000000081EA030E0EF0004170BD00F01CF84D
:1017B0008900013E00F007B800F009B84FEA430C79
:1017C0005FEA5C5C08D081EA030100F05BB84FEA95
:1017D000410C5FEA5C5CF6D14FF0000001497047B4
:1017E0000000FF070000F87F0EF1020E2EF0030E3E
:1017F0005EF8046B364205D4012A43EB030515F568
:10180000001F12D8012841EB010C1CF5001F0CD859
:101810000ED14FEAD17C15F5001F0CEB4C0C0CF1EE
:10182000020C08BF4CEBD37C04E04FF0080C01E045
:101830004FEAD37C0CEB4C0526FA05F606F00706BA
:10184000B6F1040C06D20EEB860CBDE870404CF0ED
:10185000010C6047DFE80CF0090B02024FF0004179
:101860004FF00000A1F5002170BD19461046012877
:1018700051EB010418BFD4F5001484BF002001F01F
:10188000004170BD0808A0F500114FEA3101704712
:1018900091EA030F10B581F000413FF573AC83F07E
:1018A000004300F009B8000010B591EA030F48BFEB
:1018B00083F000433FF566AC841A71EB030C07D24A
:1018C00012198CF0004C43EB0C03001B61EB0C0174
:1018D000DFF8A4E14FEA1154A4EB135C1EEA430FB6
:1018E00018BF9EEA445F00F0B08023EA6E035242C4
:1018F00021EA0451C3EB6E0338BF5B1EDCF1200EFE
:1019000025D322FA0CFE10EB0E0043FA0CFE41EB3D
:101910000E01CCF1200E03FA0EFE10EB0E0051F179
:101920000001CCF1200E29D412FA0EF201EB045181
:10193000BDE8104058BF7047401C1CBFB2F1004FBB
:10194000704700280CBF491C20F00100704712EBC3
:10195000020E43EB030218BF4FF0010E4EEA4202A3
:10196000ACF1200CDCF11E0E54D943FA0CFE10EB46
:101970000E0051F1FF31CCF11E0ED5D50EF1010E46
:1019800012FA0EFE404141EB010101EB445C5FEABB
:101990005C5C10D910EBDE7001EB045138BFBEF176
:1019A000004FBDE8104018BF704700280CBF491C0D
:1019B00020F00100704730D24FEAD42C11F500110D
:1019C00024F400641BD0B1FA81F20B3AA41AA41ECD
:1019D000D2F12003914030FA03F31943904001EB18
:1019E000CC71002C01EB0451BDE81040A8BF70473A
:1019F00001F1C0414FF0000001F000417047B0FA22
:101A000080F310FA03F100D110BDE41A173C480529
:101A1000C90AE4E701EB045110BD491001EB045180
:101A2000BDE810404FEA300002E04FF0000170477F
:101A30004A0008BF0042F8D0B2F5001F28BF704727
:101A400001F000414FF0000070479EEA445F07D06C
:101A500011EA5E0FBDE8104004BF0021002070476E
:101A6000BDE8104070B5FFF7BFFE00BF40DFF63E97
:101A700083F00041104670470000E0FF90EA010F3C
:101A800048BF81F0004100F12E82421A3CBF801A0B
:101A900089184FEAD0524FF07F4C1CEA410FA2EB5D
:101AA000D15318BF9CEA026F00F03B804FF0004C0E
:101AB0004CEA00204CEA012121FA03FC10EB0C0C4B
:101AC0001ED202F1FF325FEA1C2040EBC25038BF49
:101AD00070471CF07F0F4FEA400C18BFBCF17F4FDE
:101AE00038BF7047C3F12003994008BF20F00100C0
:101AF000BCF17F4F38BF7047A0F1C04000F0DDB9A6
:101B00004FEA3C00000A40EBC25028BF1CF0FF0F18
:101B10004FEA400CE6D018BFBCF17F4F38BF70478A
:101B2000EAE79CEA026F05D010EA5C0F08BF00F0FC
:101B30000040704710B500F07AF900BF64FBBE3E6C
:101B40004FF47F0C1CEAD0121EBF1CEAD11392EA9C
:101B50000C0F93EA0C0F00F0858090EA010F48BF4C
:101B600042F4807240F4000C41F400002CF07F41FC
:101B700020F07F4000B58142A2EB03020FF2081C67
:101B8000ACEB504EC0F100009EF800E04FEA4E0E64
:101B900000FB0EFC38BF49004FEA2C1C02F5FA028C
:101BA0000CFB0EF34FEACE1E4FEA112C4FEAC12177
:101BB0000EEB635E42EB22420EFB0CFC4FEA1C5321
:101BC00000FB03114FEA112C4FEA01310EFB0CFC14
:101BD0004FEADC4C00FB0C11C14228BF09184CEB4A
:101BE00003335DF804EB10EB410143EBC250B2F557
:101BF0007C0F38BF704729D512F0F00F1CBF00F1E1
:101C0000C04000F000407047008182838485868751
:101C100088898B8C8D8E8F919293959697999A9CAB
:101C20009D9FA0A2A3A5A7A8AAACAEB0B2B3B5B71A
:101C3000B9BCBEC0C2C5C7C9CCCED1D4D7D9DCDFF0
:101C4000E2E6E9ECF0F3F7FAFE0000004FEA400CA0
:101C50000CF1807CBCF17E4F28BF7047B0F1C040D2
:101C600000F02BB990EA010F0CEAD11348BF42F4FF
:101C70008072624538BF634507D213F47F0F16D0D8
:101C800080EA010000F00040704710B500F0CFF886
:101C9000097EFC3E00F005B880EA010000F000403B
:101CA000704780EA010000F0004000F006B912F42D
:101CB0007F0F04BF0248704780EA010000F0FDB8C2
:101CC0000000C07FC10DD1F19E0206DB4FEA002368
:101CD00043F0004323FA02F07047004207D54FEA71
:101CE0004001B1F1FE4F02D24FF00000704710B535
:101CF00000F09DF849922480002070476FEA200090
:101D000070470000B0FA80F310FA03F2C3F19D03AC
:101D10000AD0D90501EB1220530638BF704700F1F5
:101D2000010008BF20F00100704700004FF47F0C55
:101D30001CEAD0121EBF1CEAD11392EA0C0F93EAE0
:101D40000C0F00F0478090EA010F48BF42F4807208
:101D50004FF0004C4CEA00204CEA012102EB030258
:101D6000A0FB0113A2F50002002918BF43F00103F4
:101D70005B0028BF4FEA330342EB22425FEA132C99
:101D80004CEBC2502EBFBCEB436FB2F57C0F7047DB
:101D90004FEA036CBCF1004F08BF20F00100B2F520
:101DA0007C0F38BF70470BD582F0FF0212F5803FE1
:101DB000C8BF704700F1C040D8BF00F00040704776
:101DC00000F5000C5FEA4C0C48BF7047B0F1C04012
:101DD00000F073B890EA010F0CEAD11348BF42F447
:101DE0008072624538BF634504D280EA010000F08A
:101DF0000040704710B500F01AF800BF8900013E9E
:101E000000F007B800F009B85FEA410C5FEA1C6C0B
:101E100008D080EA010000F050B85FEA400C5FEAA9
:101E20001C6CF6D14FF00040A0F5800070470EF119
:101E3000020E2EF0030E5EF8044B244204D44FEA47
:101E40004102B2F17F4F11D84FEA4003B3F17F4F07
:101E50000CD80ED14FEAD07CB2F17F4F0CEB4C0C7A
:101E60000CF1020C08BF4CEBD17C04E04FF0080CE5
:101E700001E04FEAD17C0CEB4C0324FA03F404F0AC
:101E80000704B4F1040C06D20EEB840CBDE810403C
:101E90004CF0010C6047DFE80CF0070802024FF03D
:101EA0000040A0F5800010BD0846420018BFD2F1E6
:101EB000807288BF00F0004010BDFF2141EAD05081
:101EC000C005704780F0004090EA010F7FF5DDAD5E
:101ED00081F0004100F007B890EA010F48BF81F09F
:101EE00000413FF5D2AD421A04D882F00042A0EB87
:101EF000020011444FEAD0524FF07F4C1CEA410FD0
:101F0000A2EBD15318BF9CEA026F4AD04FF0004CAD
:101F10004CEA00204CEA012121FA03FCB0EB0C0C46
:101F20000FD412F0FE0F36D05FEA4C001DD5001220
:101F300040EBC25038BF70471CF03F0F18BF7047CE
:101F40000BE0A2F101025FEA1C2040EBC25038BF57
:101F500070471CF07F0F18BF7047C3F120039940F2
:101F600014BF401E20F00100704780084FEA122382
:101F700008BF7047B0FA80FCA2EB0C02CCF1280C31
:101F800060FA0CF093EA122F04BF00EBC2507047C6
:101F90004FEAC3707047130A5FEADC1008BF70474E
:101FA000F6E79CEA026F04D010EA5C0F08BF00203D
:101FB000704710B5FFF73BFF40DFF63E81F0004071
:101FC00070470CF00F03092B08BF082000F0598060
:101FD0000A2B0BD0082B18BF704708BF1CF0400F0E
:101FE0000AD04FF000004FF0000170471CF0400F86
:101FF00018BF4FF0004070471CF0100F08D020F0C1
:10200000704300F07F4242EAD3014FEA43707047C9
:1020100000F0604021F07F4242EA000201F07F4080
:1020200040EA727070474FF0FF0C4CF4E06C1CEA11
:1020300011531CBF9CEA030C9445C2BFDA4201EB6A
:1020400002517047002B0DD0BCF1000F0FD0002AB9
:1020500001F00041A4BF41F0E04141F07F614FF049
:102060000000704701F000414FF00000704750EA57
:1020700001334FF09B0C18BF4CF0806C7FF422A909
:1020800070471CF4801F11D01CF4E02F03D06FEABE
:10209000CC31490070474FF04050EFF3008222F0FE
:1020A000704242EA000282F3008870474FF000005D
:1020B00070470000000000004C5555555555A53F90
:1020C0007751C1166CC156BF9015CB19A001FA3ECD
:1020D000AD529C804F7E92BEC4B1B4BD9EEE213EF7
:1020E000D43888BEE9FAA8BD00004054FB21F93F6E
:1020F0003163621A61B4D03D0000601A61B4D03D12
:102100007370032E8A19A33B0000002E8A19A33B8B
:10211000C14920259A837B3900000000000000009F
:102120006E83F9A22915444ED15727FCC0DD34F542
:10213000999562DB4190433CAB6351FE61C5BBDEC8
:102140003A6E24B7E0D24D42EA2E49061C92D109DC
:102150001CEB1DFE3EA729B1F53582E88444BB2E59
:1021600026709CE9417E5FB439D69139F4395383A6
:102170008B5F849C3B28F9BDFF97F81F0F9805DE05
:102180008B112FEF1F6D0A5ACF7E366DB709CB2703
:10219000663F464F2DEA5F9EC7BA27757BF1E5EB98
:1021A000F739073DEA92528AB15FFB6B085D8D1FDC
:1021B000A6F810111111813FD561C119A0012ABFE4
:1021C0007DFEB157E31DC73EEB9C2B8AE6E55ABE68
:1021D0007CD5CF5A3AD9E53DF8210008000000200F
:1021E0000C0000006C010008042200080C00002014
:1021F0001C0B000088010008000000000000000027
:0422000000000000DA
:0400000508000131BD
:00000001FF
